:020000040800F2
:1000000000500020F94D00089D490008A149000852
:10001000A5490008A9490008AD49000800000000F2
:10002000000000000000000000000000F94100088E
:10003000B149000800000000C1420008B5490008AD
:10004000414E0008414E0008414E0008414E000854
:10005000414E0008414E0008414E0008414E000844
:10006000414E0008414E0008414E0008414E000834
:10007000414E0008414E0008414E0008414E000824
:10008000414E0008414E0008414E0008414E000814
:10009000C1490008414E0008414E0008414E000889
:1000A000414E0008414E0008414E0008414E0008F4
:1000B000414E0008414E0008414E0008414E0008E4
:1000C000414E0008414E0008414E0008414E0008D4
:1000D000414E0008414E0008414E0008414E0008C4
:1000E000414E0008414E0008414E0008000000004B
:1000F0000000000000000000000000000000000000
:0C01000000000000000000005FF808F1A3
:10010C0010B5054C237833B9044B13B10448AFF345
:10011C0000800123237010BD5C0100200000000052
:10012C00A04E0008084B10B51BB108490848AFF3A6
:10013C0000800848036803B910BD074B002BFBD0A7
:10014C00BDE81040184700BF00000000600100200F
:10015C00A04E00085C0100200000000010B5044611
:10016C0001F01AFC064BA3FB0030800900F024FAC6
:10017C00002221464FF0FF3000F0E0F9002010BDC6
:10018C00D34D621008B5074A136843F0100313608F
:10019C00032000F0C1F90F20FFF7E0FF04F04EFB45
:1001AC00002008BD00200240024A1368013313608E
:1001BC00704700BF78010020014B1868704700BFE2
:1001CC007801002010B582B00190FFF7F5FF0446CE
:1001DC00FFF7F2FF001B019B9842F9D302B010BD50
:1001EC00F0B482B00023019390F82430012B00F07E
:1001FC00C780012380F824304B68062B1BD8066877
:10020C00756B4FF4787292FAA2F4B4FA84F4013B51
:10021C0003FB04F41F2707FA04F425EA04040D6811
:10022C0092FAA2F2B2FA82F203FB02F205FA02F29D
:10023C002243726337E00C2B1AD80668376B4FF4E5
:10024C00787292FAA2F5B5FA85F5073B03FB05F532
:10025C001F2404FA05F527EA05050C6892FAA2F2A8
:10026C00B2FA82F203FB02F39C402C4334631AE093
:10027C000668F46A4FF4787292FAA2F5B5FA85F52D
:10028C000D3B03FB05F51F2707FA05F524EA0505C9
:10029C000C6892FAA2F2B2FA82F203FB02F304FAAD
:1002AC0003F32B43F3620D68092D1BD90668F7681D
:1002BC00382292FAA2F4B4FA84F4A5F10A0303FBEF
:1002CC0004F4072505FA04F427EA04048D6892FA6D
:1002DC00A2F2B2FA82F203FB02F305FA03F2224312
:1002EC00F26018E007683E69382292FAA2F4B4FA78
:1002FC0084F405FB04F4072303FA04F426EA04044B
:10030C008E6892FAA2F2B2FA82F205FB02F306FAB6
:10031C0003F323433B610B68103B012B26D8036886
:10032C00194A93421CD19A6812F4000F20D19A6892
:10033C0042F400029A600B68102B1BD1134B1B6804
:10034C00134AA2FB03239B0C03EB83035A00019279
:10035C0002E0019B013B0193019B002BF9D10AE0C8
:10036C00836A43F020038362012304E0002302E04C
:10037C00002300E00023002280F82420184600E02F
:10038C00022002B0F0BC7047002401401401002090
:10039C0083DE1B4338B503689A6812F0010F1ED038
:1003AC0004469A6822F001029A60FFF705FF0546A1
:1003BC000EE0FFF701FF401B022809D9A36A43F0A6
:1003CC001003A362E36A43F00103E362012038BD2A
:1003DC0023689B6813F0010FEBD1002038BD00207F
:1003EC0038BD00BF002800F0918038B50446836A00
:1003FC0023B9C36280F8243004F068FA2046FFF772
:10040C00C9FFA36A13F0100F7AD1002878D1A36A20
:10041C0023F4885323F0020343F00203A3626268BF
:10042C00E3691A43E168022393FAA3F3B3FA83F363
:10043C0001FA03F31343A268B2F5807F04D0012ABA
:10044C0005D14FF4807503E04FF4807500E0002572
:10045C006269012A15D161B9A269013A4FF4604170
:10046C0091FAA1F1B1FA81F18A4042F4006215438C
:10047C0007E0A26A42F02002A262E26A42F00102A4
:10048C00E26221684A6822F469422A434A60216880
:10049C008D681F4A2A401A438A60A268B2F5807F91
:1004AC0001D0012A0AD12269013A4FF4700191FA64
:1004BC00A1F1B1FA81F102FA01F100E00021256805
:1004CC00EA6A22F470020A43EA6222689168114ACD
:1004DC000A40934208D10023E362A36A23F003038A
:1004EC0043F00103A36238BDA36A23F0120343F067
:1004FC001003A362E36A43F00103E362012038BDF9
:10050C00A36A43F01003A362012038BD0120704799
:10051C00FDF7E1FFFE0E1FFF074AD36823F4E063EB
:10052C001B041B0C000200F4E060184340F0BF6099
:10053C0040F40030D060704700ED00E030B4164B52
:10054C00DB68C3F30223C3F10704042C28BF042483
:10055C001D1D062D01D9DD1E00E00025012303FA27
:10056C0004F4013C2140A940AB40013B1A400A4332
:10057C00002806DA00F00F001201D2B2074B1A5411
:10058C0007E01201D2B200F1604000F5614080F842
:10059C00002330BC704700BF00ED00E014ED00E01C
:1005AC00420900F01F00012303FA00F0014B43F84D
:1005BC002200704700E100E00138B0F1807F0AD2E0
:1005CC00064B5860F021064A82F8231000209860F0
:1005DC0007221A6070470120704700BF10E000E04E
:1005EC0000ED00E0042805D1054A136843F004032C
:1005FC0013607047024A136823F0040313607047BA
:10060C0010E000E0F0B583B000263446D5E00122BE
:10061C00A2400B6813409A4240F0CE804D68122DD8
:10062C002DD00BD8022D27D003D85DB3012D1ED0B1
:10063C0035E0032D30D0112D1BD030E0614FBD4281
:10064C0020D008D8A7F58017BD421BD007F58037FE
:10065C00BD4224D116E05C4FBD4213D007F5803764
:10066C00BD420FD0A7F58017BD4218D10AE0CE6865
:10067C0015E0CE68043612E0CE6808360FE0CE687E
:10068C000C360CE08D684DB1012D02D102610826AB
:10069C0005E04261082602E0002600E00426FF2B5C
:1006AC0001D8864601E000F1040EFF2B01D8A20010
:1006BC0002E0A4F108029200DEF800700F259540CC
:1006CC0027EA050506FA02F22A43CEF800204A680A
:1006DC0012F0805F70D03D4A956945F00105956137
:1006EC00926902F001020192019AA708BD1C384AD6
:1006FC0052F8255004F0030292004FF00F0E0EFA40
:10070C0002FE25EA0E0E334DA8420DD005F580658C
:10071C00A8420BD005F58065A84209D005F5806587
:10072C00A84207D1032506E0002504E0012502E0DC
:10073C00022500E0042505FA02F24EEA0202023715
:10074C00234D45F827204A6812F4803F05D005F563
:10075C0080652A681A432A6004E01F4D2A6822EA41
:10076C0003022A604A6812F4003F04D01A4D6A68EA
:10077C001A436A6004E0184D6A6822EA03026A6050
:10078C004A6812F4801F04D0134DAA681A43AA6059
:10079C0004E0114DAA6822EA0302AA604A6812F426
:1007AC00001F04D00C4DEA681343EB6004E00A4DC3
:1007BC00EA6822EA0303EB6001340F2C7FF627AFC3
:1007CC0003B0F0BD000021100000311000100240F9
:1007DC000000014000080140000401400AB1016121
:1007EC007047090401617047C3685940C160704784
:1007FC00002867D0F0B587B0044690F8E93313F0C1
:10080C00FF0F04D1002380F8E83304F043F90323ED
:10081C0084F8E933206801F0D5FE254655F8107BA5
:10082C006E460FCD0FC62B683360231D0ECB38469A
:10083C0001F0B6FE0021206801F0CEFE002310E08E
:10084C0004EB4312012182F8291082F82830938698
:10085C00002182F82B109163D1639A1C5201A15094
:10086C0001330E2BECD9002312E004EB43120021D0
:10087C0082F8091282F80832938682F80B12C2F8B9
:10088C001812C2F81C1203F111025201A1500133CB
:10089C000E2BEAD9254655F8107B6E460FCD0FC6A8
:1008AC002B683360231D0ECB384601F097FE0025D4
:1008BC0084F82450012384F8E933206802F0B4F959
:1008CC00284601E00120704707B0F0BD90F8E833EE
:1008DC00012B10D010B50446012180F8E81304F068
:1008EC0021FA206802F09EF9206801F061FE0020D8
:1008FC0084F8E80310BD0220704700BF90F8E8337D
:10090C00012B0DD010B50446012380F8E83380F894
:10091C002410006802F080F9002084F8E80310BD70
:10092C000220704738B54DB2002D05DA01F07F0476
:10093C0064012834044405E001F07F04640104F5EB
:10094C000274044401F07F012170ED0F6570226187
:10095C00E37090F8E833012B0BD00546012380F8A7
:10096C00E8332146006801F04DFE002085F8E803CD
:10097C0038BD022038BD00BF4AB2002A05DA01F0AA
:10098C007F035B012833034405E001F07F035B0127
:10099C0003F50273034401F07F011970D20F5A70F2
:1009AC0090F8E823012A0CD010B50446012280F8F7
:1009BC00E8231946006801F0C3FF002084F8E8031F
:1009CC0010BD0220704700BF70B501F07F056C01AF
:1009DC0004F5027101440444C4F81C2205F111020F
:1009EC005201861883500023736084F8093284F80E
:1009FC00085290F8E833012B0FD00446012380F8FD
:100A0C00E8331DB9006802F02BF902E0006802F02F
:100A1C0027F9002084F8E80370BD022070BD00BFE8
:100A2C0001F07F01113100EB41108088704700BF4D
:100A3C0070B501F07F056C0104F1280101440444F8
:100A4C00E263AA1C520186188350002373600123B1
:100A5C0084F8293084F8285090F8E833012B0FD013
:100A6C000446012380F8E8331DB9006802F0F8F859
:100A7C0002E0006802F0F4F8002084F8E80370BD8E
:100A8C00022070BD70B582B005460023ADF806306B
:100A9C00ADF8043016E2BDF8064014F00F0440F037
:100AAC00C880BDF8063003F010039BB29BBB0388D3
:100ABC009BB223F4E14323F070039BB203802968BB
:100ACC00B1F850309AB295F8283002EBC3030233D8
:100ADC0001EB4303D3F80034C3F309036B64EA6BF3
:100AEC001344EB630021284604F006F895F82430F3
:100AFC0013F0FF0F00F0E6812B6C002B40F0E2812D
:100B0C002A6895F8243043F08003A2F84C30002377
:100B1C0085F82430D6E103889BB2ADF80430BDF8DB
:100B2C00043003F400639BB203B3B0F850309BB2B3
:100B3C0095F8082203EBC203063300EB4303D3F80A
:100B4C000034C3F30903C5F82432B5F80C2205F5BB
:100B5C007B7102F0F9F92A68138823F070031B05E6
:100B6C001B0D1380284603F0B5FFABE1BDF8043034
:100B7C0013F4004F00F0A681038823F070031B05CB
:100B8C001B0D03802868B0F850309BB295F80822F2
:100B9C0003EBC203063300EB4303D3F80034C3F377
:100BAC000903C5F8243263B1B5F80C22D5F81C1230
:100BBC0002F0CAF9D5F81C22D5F824321344C5F832
:100BCC001C320021284603F08DFF2A68B2F8503001
:100BDC009BB2063302EB4303D5F818123E290ED90B
:100BEC00C1F34F1211F01F0F01D1013A92B26FEA0B
:100BFC00C2626FEA524292B2C3F800240AE0C1F317
:100C0C004F0211F0010F01D0013292B2920292B256
:100C1C00C3F800242A6813889BB223F4804323F082
:100C2C00700383F4405343F4004343F08003138078
:100C3C0048E130F824309BB2ADF80430BDF80430F4
:100C4C0013F4004F00F0968030F8243023F070033A
:100C5C001B051B0D20F8243005EB441393F81232BE
:100C6C00E3B92868B0F850309BB205EB441292F807
:100C7C00082203EBC203063300EB4303B3F8006412
:100C8C00C6F30906002E52D005EB44113346B1F8D9
:100C9C000C22D1F81C1202F057F948E0286805EB39
:100CAC00441393F8081230F8213003F480439BB2BC
:100CBC00B3B1B0F8502092B202EBC103023300EB97
:100CCC004303B3F80064C6F30906FEB105EB441107
:100CDC003346B1F80E22D1F81C1202F035F915E0AA
:100CEC00B0F850309BB203EBC103063300EB430367
:100CFC00B3F80064C6F3090646B105EB441133465C
:100D0C00B1F81022D1F81C1202F01EF92A6805EB7A
:100D1C00441393F8081232F8213023F0F0031B052A
:100D2C001B0D43F4004343F0C00322F8213004F1BF
:100D3C0011035B01E9184A6832444A6005EB44111F
:100D4C00D1F81C223244C1F81C22EB581BB1D1F84B
:100D5C0018128E4207D205EB441393F8081228465A
:100D6C0003F0C0FE06E005EB441191F8081228468A
:100D7C00FFF72AFEBDF8043003F080039BB2002B72
:100D8C0000F0A0802A6832F824309BB223F4E143AF
:100D9C0023F070039BB222F8243005EB441393F834
:100DAC003230EBB92868B0F850309BB205EB4412E6
:100DBC0092F8282003EBC203023300EB4303D3F871
:100DCC000034C3F30903A21C05EB42125360002B41
:100DDC0051D005EB44118A8DC96B01F02DFF4AE00F
:100DEC00286805EB441393F8281030F8213003F0F1
:100DFC0040039BB2BBB1B0F8502092B202EBC103DE
:100E0C00023300EB4303D3F80034C3F30903A21CF1
:100E1C0005EB42125360EBB105EB4411CA8DC96B63
:100E2C0001F00AFF16E0B0F850309BB203EBC1039F
:100E3C00063300EB4303D3F80034C3F30903A21CBD
:100E4C0005EB421253602BB105EB44110A8EC96BB2
:100E5C0001F0F2FE2A6805EB441393F8281032F8DF
:100E6C00213023F0F0031B051B0D43F4404343F0EA
:100E7C00800322F821302968B1F850309AB205EB82
:100E8C00441090F8283002EBC303023301EB430308
:100E9C00D3F80034C3F30903A11C49016A18536049
:100EAC00C26B1A44C2636B582BB990F828102846B1
:100EBC0003F022FE06E005EB441494F828102846B3
:100ECC00FFF7B6FD2868B0F844309BB2ADF8063099
:100EDC0013F4004F7FF4DFAD002002B070BD00BFF3
:100EEC0010B50446006801F0A1FE10F4004F02D0CA
:100EFC002046FFF7C7FD206801F098FE10F4806FC4
:100F0C000FD02268B2F844309BB223F480639BB2BA
:100F1C00A2F84430204603F0FFFD00212046FFF7E5
:100F2C00EDFC206801F082FE10F4804F08D022689E
:100F3C00B2F844309BB223F480439BB2A2F8443005
:100F4C00206801F073FE10F4005F08D02268B2F83C
:100F5C0044309BB223F400539BB2A2F84430206877
:100F6C0001F064FE10F4805F19D02268B2F84030B2
:100F7C009BB223F004039BB2A2F8403023684FF4D9
:100F8C003D42A3F84020204603F0E2FD2268B2F86F
:100F9C0044309BB223F480539BB2A2F844302068B7
:100FAC0001F044FE10F4006F21D02268B2F84430F6
:100FBC009BB223F400639BB2A2F844302268B2F8CF
:100FCC0040309BB243F00803A2F840302268B2F8DC
:100FDC0040309BB243F00403A2F84030206801F08B
:100FEC0025FE10F4805F02D1204603F0A1FD20689D
:100FFC0001F01CFE10F4007F0BD02268B2F84430D4
:10100C009BB223F400739BB2A2F84430204603F049
:10101C007DFD206801F00AFE10F4807F08D0226864
:10102C00B2F844309BB223F480739BB2A2F84430E4
:10103C0010BD00BF38B54AB2002A05DA01F07F03B3
:10104C005B012833034403E04B0103F502730344B3
:10105C0001249C7001F07F041C70D20F5A7090F820
:10106C00E823012A11D00546012280F8E82319460D
:10107C00006801F04DFD24B905F57B71286801F07D
:10108C00D9FD002085F8E80338BD022038BD00BF2B
:10109C0010B54AB2002A05DA01F07F035B01283350
:1010AC00034403E04B0103F50273034400249C70DA
:1010BC0001F07F011970D20F5A7090F8E823012AC1
:1010CC000BD00446012280F8E8231946006801F091
:1010DC0057FD002084F8E80310BD022010BD00BFAE
:1010EC0010B401F08004A4B22CB101F07F014901CD
:1010FC002831014403E0490101F50271014412B9A0
:10110C008A728B8004E001228A72CB801B0C0B81CB
:10111C00002010BC704700BF4FF4807393FAA3F308
:10112C00B3FA83F39B0003F1844303F5602301229C
:10113C001A60704730B583B00446036813F0010F92
:10114C0000F09680B24B5B6803F00C03042B0AD0C2
:10115C00AF4B5B6803F00C03082B1BD1AC4B5B68EB
:10116C0013F4803F16D04FF4003393FAA3F3A84B3B
:10117C001A684FF4003393FAA3F3B3FA83F303F032
:10118C001F0322FA03F313F0010F71D06368002BD5
:10119C006ED1A0E26368B3F5803F05D19C4A136819
:1011AC0043F48033136026E063B903F1804303F505
:1011BC0004331A6822F480321A601A6822F48022EE
:1011CC001A6018E0B3F5A02F0CD103F18043A3F5FE
:1011DC003C331A6842F480221A601A6842F4803256
:1011EC001A6008E08A4B1A6822F480321A601A6876
:1011FC0022F480221A606368EBB1FEF7DDFF05462E
:10120C0005E0FEF7D9FF401B642800F266824FF41C
:10121C00003393FAA3F37E4B1A684FF4003393FA1E
:10122C00A3F3B3FA83F303F01F0322FA03F313F0CF
:10123C00010FE6D01CE0FEF7BFFF054605E0FEF708
:10124C00BBFF401B642800F24A824FF4003393FA30
:10125C00A3F36F4B1A684FF4003393FAA3F3B3FA6A
:10126C0083F303F01F0322FA03F313F0010FE6D10B
:10127C00236813F0020F00F09080654B5B6813F04D
:10128C000C0F0AD0624B5B6803F00C03082B27D1C0
:10129C005F4B5B6813F4803F22D1022393FAA3F3D4
:1012AC005B4B1A68022393FAA3F3B3FA83F303F0AC
:1012BC001F0322FA03F313F0010F03D02369012B50
:1012CC0040F00F825248036823F0F8016369F8225A
:1012DC0092FAA2F2B2FA82F293400B4303605CE002
:1012EC0023699BB3012292FAA2F3B3FA83F39B0016
:1012FC0003F1844303F584031A60FEF75DFF054692
:10130C0005E0FEF759FF401B022800F2EC81022396
:10131C0093FAA3F33E4B1A68022393FAA3F3B3FA9E
:10132C0083F303F01F0322FA03F313F0010FE8D049
:10133C003748036823F0F8016369F82292FAA2F2A5
:10134C00B2FA82F293400B43036026E0012393FA36
:10135C00A3F3B3FA83F39B0003F1844303F58403F3
:10136C0000221A60FEF728FF054605E0FEF724FF71
:10137C00401B022800F2B981022393FAA3F3244BF9
:10138C001A68022393FAA3F3B3FA83F303F01F034F
:10139C0022FA03F313F0010FE8D1236813F0080FBE
:1013AC0052D0A3693BB3012292FAA2F3B3FA83F3AE
:1013BC00184941F82320FEF7FFFE054605E0FEF72D
:1013CC00FBFE401B022800F29281022393FAA3F247
:1013DC0093FAA3F20E4A526A93FAA3F3B3FA83F385
:1013EC0003F01F0322FA03F313F0010FE7D00120DF
:1013FC00FEF7E8FE28E0012393FAA3F3B3FA83F394
:10140C000021044A42F82310FEF7D6FE054609E0F7
:10141C000010024080044242FEF7CEFE401B022820
:10142C0000F26781022393FAA3F293FAA3F2BA4A69
:10143C00526A93FAA3F3B3FA83F303F01F0322FA6D
:10144C0003F313F0010FE7D1236813F0040F00F03E
:10145C00A180B14BDA6942F08052DA61DB6903F0AA
:10146C0080530193019BAD4A136843F4807313605E
:10147C00FEF7A2FE054605E0FEF79EFE401B642823
:10148C0000F23981A54B1B6813F4807FF4D0E3681C
:10149C00012B05D1A04A136A43F00103136222E029
:1014AC0063B903F1804303F504331A6A22F0010295
:1014BC001A621A6A22F004021A6214E0052B09D18E
:1014CC00954B1A6A42F004021A621A6A42F001023F
:1014DC001A6208E0904B1A6A22F001021A621A6A28
:1014EC0022F004021A62E36853B3FEF765FE054668
:1014FC0007E0FEF761FE401B41F28833984200F290
:10150C00FC80022393FAA3F293FAA3F3B3FA83F3C6
:10151C005B0943F00203DBB2022B02D17E4B1A6A49
:10152C0001E07D4B5A6A022393FAA3F3B3FA83F3D7
:10153C0003F01F0322FA03F313F0010FD9D029E0B3
:10154C00FEF73AFE054607E0FEF736FE401B41F279
:10155C008833984200F2D380022393FAA3F293FAD1
:10156C00A3F3B3FA83F35B0943F00203DBB2022B60
:10157C0002D1694B1A6A01E0674B5A6A022393FA4B
:10158C00A3F3B3FA83F303F01F0322FA03F313F06C
:10159C00010FD9D1E369002B00F0B3805E4A526889
:1015AC0002F00C02082A00F0AE80022B68D14FF03A
:1015BC00807393FAA3F3B3FA83F39B0003F1844390
:1015CC0003F5840300221A60FEF7F6FD054605E0DC
:1015DC00FEF7F2FD401B022800F297804FF00073DB
:1015EC0093FAA3F34C4B1A684FF0007393FAA3F3DE
:1015FC00B3FA83F303F01F0322FA03F313F0010F82
:10160C00E6D1236AB3F5803F06D143494B6823F4F6
:10161C000032A36813434B603F48436823F47411B2
:10162C00236A626A13430B4343604FF0807393FA4F
:10163C00A3F3B3FA83F39B0003F1844303F5840310
:10164C0001221A60FEF7B8FD044604E0FEF7B4FD73
:10165C00001B02285BD84FF0007393FAA3F32E4BB8
:10166C001A684FF0007393FAA3F3B3FA83F303F001
:10167C001F0322FA03F313F0010FE7D0002049E017
:10168C004FF0807393FAA3F3B3FA83F39B0003F147
:10169C00844303F5840300221A60FEF78DFD044693
:1016AC0004E0FEF789FD001B022832D84FF00073CE
:1016BC0093FAA3F3184B1A684FF0007393FAA3F341
:1016CC00B3FA83F303F01F0322FA03F313F0010FB1
:1016DC00E7D100201EE001201CE003201AE00320CB
:1016EC0018E0012016E0032014E0032012E0032090
:1016FC0010E003200EE003200CE003200AE003209E
:10170C0008E0002006E0012004E0032002E00320B2
:10171C0000E0032003B030BD001002400070004018
:10172C0030B486B01F4D02AC28686968AA68EB68B3
:10173C000FC42B8AADF804301B4B5B6803F00C0212
:10174C00082A2AD103F470114FF4701292FAA2F203
:10175C00B2FA82F221FA02F206A90A4412F8102C0B
:10176C0013F4803F15D0104B5B6803F400314FF439
:10177C00003393FAA3F3B3FA83F321FA03F306A924
:10178C000B4413F8140C094BB3FBF0F000FB02F004
:10179C0004E0074800FB02F000E0044806B030BC4F
:1017AC00704700BFB84E00080010024000127A00CB
:1017BC0000093D0070B5744B1B6803F007038B42A6
:1017CC000BD2714A136823F007030B4313601368A1
:1017DC0003F00703994240F0C680036813F0020F30
:1017EC0006D06A4C636823F0F0028368134363608D
:1017FC000D460446036813F0010F75D04268012AA8
:10180C0013D14FF4003393FAA3F3604B19684FF4E0
:10181C00003393FAA3F3B3FA83F303F01F0321FA13
:10182C0003F313F0010F27D19FE0022A13D14FF0DD
:10183C00007393FAA3F3554B19684FF0007393FAA6
:10184C00A3F3B3FA83F303F01F0321FA03F313F0AA
:10185C00010F11D18BE0022393FAA3F34B4B1968C0
:10186C00022393FAA3F3B3FA83F303F01F0321FAD1
:10187C0003F313F0010F7CD044494B6823F00303AE
:10188C0013434B60FEF798FC06466368012B0ED1A0
:10189C0006E0FEF791FC801B41F2883398426AD82F
:1018AC003A4B5B6803F00C03042BF2D11CE0022BC7
:1018BC0015D106E0FEF780FC801B41F2883398427C
:1018CC005BD8324B5B6803F00C03082BF2D10BE0B6
:1018DC00FEF772FC801B41F2883398424FD82B4B99
:1018EC005B6813F00C0FF3D1274B1B6803F0070355
:1018FC009D420AD2244A136823F007032B4313603A
:10190C00136803F007039D423BD1236813F0040FC7
:10191C0006D01E494B6823F4E062E36813434B6026
:10192C00236813F0080F07D0184A536823F4605348
:10193C00216943EAC1035360FFF7F2FE134B5B6866
:10194C0003F0F002F02393FAA3F3B3FA83F322FA31
:10195C0003F30F4AD35CD8400E4B18600F20FEF7F0
:10196C00FDFB002070BD012070BD012070BD012069
:10197C0070BD012070BD032070BD032070BD03201D
:10198C0070BD012070BD00BF00200240001002405D
:10199C00384F000814010020014B1868704700BF35
:1019AC001401002008B5FFF7F7FF084B5B6803F440
:1019BC0060524FF4605393FAA3F3B3FA83F322FA11
:1019CC0003F3034AD35CD84008BD00BF00100240AB
:1019DC00484F0008F0B583B00446036813F0010FBC
:1019EC006FD0474BDA6942F08052DA61DB6903F061
:1019FC0080530193019B434A136843F48073136033
:101A0C00FEF7DAFB054604E0FEF7D6FB401B642824
:101A1C006FD83C4B1B6813F4807FF5D0384B1B6A96
:101A2C0013F4407346D0626802F44072934241D082
:101A3C003348016A21F440764FF4803393FAA3F2D1
:101A4C00B2FA82F2304D012745F8227093FAA3F3D3
:101A5C00B3FA83F3002245F82320066211F0010F3C
:101A6C0028D0FEF7A9FB054606E0FEF7A5FB401BB8
:101A7C0041F2883398423ED8022393FAA3F293FAA8
:101A8C00A3F3B3FA83F35B0943F00203DBB2022B3B
:101A9C0002D11B4B1A6A01E0194B5A6A022393FAC2
:101AAC00A3F3B3FA83F303F01F0322FA03F313F047
:101ABC00010FDAD012490B6A23F4407263681343A6
:101ACC000B62236813F0020F06D00D494B6823F408
:101ADC004042A36813434B60236813F0100F0CD0E3
:101AEC0007494B6823F48002E36813434B600020E2
:101AFC0004E0032002E0032000E0002003B0F0BD6E
:101B0C0000100240007000400004424270B586B0E4
:101B1C000646474D02AC28686968AA68EB680FC492
:101B2C002B8AADF80430022E5ED0102E02D0012E7E
:101B3C006DD13DE03F4B5A681B6813F0807F68D035
:101B4C0002F470114FF4701393FAA3F3B3FA83F306
:101B5C0021FA03F306A90B4413F8103C12F480325B
:101B6C0016D03449496801F400304FF4003191FA31
:101B7C00A1F1B1FA81F120FA01F106A8014411F8A2
:101B8C00140C4AB12C4AB2FBF0F000FB03F004E059
:101B9C002A4800FB03F000E00020264B5B6813F49E
:101BAC00800F42D14000264BA3FB003040083CE0A4
:101BBC00204B1B6A40F202321A40B2F5817F2AD0C8
:101BCC0003F44073B3F5007F04D11A4A526A12F041
:101BDC00020F23D1B3F5407F23D1164B1B6813F4AE
:101BEC00003F20D1002020E0FFF7DCFE114B5B68AA
:101BFC0003F440424FF4804393FAA3F3B3FA83F314
:101C0C0022FA03F301335B00B0FBF3F00DE000208C
:101C1C000BE0002009E04FF4004006E049F640409C
:101C2C0003E0002001E04FF2244006B070BD00BF7D
:101C3C00CC4E00080010024000127A0000093D0052
:101C4C00ABAAAAAA30B4026891698DB2D369906923
:101C5C0084B2A54204D0D3699BB243EA004002E0AF
:101C6C009BB243EA014030BC704700BF0368186A5E
:101C7C005B6A9BB243EA0040704700BF030903EB69
:101C8C0083035A0000F00F001044C0B2704700BF2D
:101C9C0010B500F5FA64022922D801EB4103C1EB1F
:101CAC00C301204B83FB01E3C917C1EB63010A4459
:101CBC00131900F2CF7003EB90021B4BA3FB003007
:101CCC00A2EB501303EBD01304331848A3FB000111
:101CDC00581A01EB50008008C0EBC000181A1FE026
:101CEC0001EB4103C1EBC3010E4880FB0130C91766
:101CFC00C1EB60010A44131903EB94020A4BA3FBDA
:101D0C000434A2EB541303EBD41302330748A3FBA4
:101D1C000001581A01EB50008008C0EBC000181AE3
:101D2C00C0B210BD398EE3381F85EB512549922482
:101D3C0038B50446FEF740FA054605E0FEF73CFAD6
:101D4C00401BB0F57A7F0AD823685A6812F0200F2E
:101D5C00F4D05A6842F010025A60002038BD0320BB
:101D6C0038BD00BF38B504460268536823F0100331
:101D7C005360FEF721FA054605E0FEF71DFA401BFD
:101D8C00B0F57A7F06D823685B6813F0200FF4D087
:101D9C00002038BD032038BD38B505460C46FFF78A
:101DAC00C7FF50B92B68220C9A612B68A4B2DC6176
:101DBC002846FFF7D7FF10B938BD012038BD0120E8
:101DCC0038BD00BF38B505460C46FFF7B1FF50B91A
:101DDC002B68220C1A622B68A4B25C622846FFF7AF
:101DEC00C1FF10B938BD012038BD012038BD00BF7E
:101DFC0070B5002855D00446002954D0037C012B23
:101E0C0053D00E4601230374022343745AB90A7843
:101E1C004B78C3EB031399004FF4616505FB021576
:101E2C00B3781D4411E00878FFF728FF4FF4616583
:101E3C0005FB00F57078FFF721FFC0EB0010830065
:101E4C001D44B078FFF71AFF054429462046FFF7DA
:101E5C00A3FF064628B104236374002323740126D0
:101E6C0024E02268536823F0050353602046FFF7F3
:101E7C00FDFEB0F1FF3F0FD085420DD900F5A83122
:101E8C0001F5C0712046FFF79DFF28B10423637450
:101E9C0000232374012609E00123637400232374B7
:101EAC0004E0012602E0012600E00226304670BD67
:101EBC0000285CD038B5044600295AD0037C012B8D
:101ECC0059D00D46012303740223437432B9CB78E5
:101EDC00C3734B7843738B7883730BE0C878FFF72D
:101EEC00CDFEE0736878FFF7C9FE6073A878FFF742
:101EFC00C5FEA073A27B617BE07BFFF7C9FE20735C
:101F0C0028702046FFF79EFE1C4BA3FB0023B3F565
:101F1C00484F27D31A4DA5FB00352B0C194D05FB4B
:101F2C00130529462046FFF737FF28B104236374B5
:101F3C0000232374012038BD2046FFF797FEB0F133
:101F4C00FF3F0FD085420DD900F5A83101F5C071C6
:101F5C002046FFF737FF28B1042363740023237452
:101F6C00012038BD012363740020207438BD01208A
:101F7C007047012038BD022038BD00BFC5B3A29107
:101F8C0007452EC280510100B8B138B5044602682D
:101F9C00536823F008035360FEF70EF9054605E07D
:101FAC00FEF70AF9401BB0F57A7F08D823685B6806
:101FBC0013F0080FF4D0002038BD01207047032027
:101FCC0038BD00BF002859D010B50446437C13F02F
:101FDC00FF0F03D10023037402F08CFC0223637403
:101FEC002046FFF7D1FF18B104236374012348E0A6
:101FFC002046FFF79DFE18B104236374012340E0D3
:10200C002268536823F007035360A36823B11E4A68
:10201C00136B23F0010313631B49CB6A23F4607227
:10202C00A3681343CB626068B0F1FF3F08D1012075
:10203C00FFF76CFD18B904236374012321E0013808
:10204C002268936823F00F0343EA104393602268DD
:10205C00D3681B0C1B0480B21843D0602046FFF7DA
:10206C0081FE034618B104236374012309E00022A6
:10207C00E27301226273A273627402E001231846B8
:10208C007047184610BD00BF006C0040890001F17C
:10209C00804101F5D84192B20A607047890001F184
:1020AC00804101F5D841086880B2704770B4036A6A
:1020BC0023F001030362036A4668826922F073020B
:1020CC000C6842EA040523F002028B6813430C4CA3
:1020DC00A04205D123F00803CA68134323F004037C
:1020EC00074CA04205D126F440764A6932438E69EA
:1020FC001643466085614A684263036270BC704750
:10210C00002C014030B4036A23F480730362036A29
:10211C004568C26922F073020C68224323F40073F1
:10212C008C6843EA04230E4CA04206D123F40063CE
:10213C00CC6843EA042323F48063094CA04207D102
:10214C0025F440554C6945EA04158C6945EA04159B
:10215C004560C2614A68C263036230BC704700BF0D
:10216C00002C014030B4036A23F480530362036AE9
:10217C004468C26922F4E6420D6842EA052223F45F
:10218C0000538D6843EA0533074DA84204D124F46B
:10219C0080444D6944EA85144460C2614A68026413
:1021AC00036230BC704700BF002C014010B4036ABE
:1021BC00046A24F001040462846924F0F00444EA03
:1021CC00021223F00A0319438261016210BC7047AA
:1021DC0010B4036A23F0100303628469036A24F4C5
:1021EC00704444EA023223F0A00343EA01118261F5
:1021FC00016210BC704700BF836823F0700341F08C
:10220C00070119438160704710B4846824F47F443B
:10221C0042EA0323194344EA0103836010BC70476C
:10222C00704700BF90F83830012B00F0838010B558
:10223C000446012380F83830022380F839300268D4
:10224C00936823F47F4323F0770393600B68402B50
:10225C004CD00AD8102B58D002D8002B50D062E0AA
:10226C00202B57D0302B5AD05DE0702B12D004D8D5
:10227C00502B27D0602B2FD055E0B3F5805F03D0C7
:10228C00B3F5005F12D04EE00268936823F00703A9
:10229C00936048E0CB684A6889680068FFF7B4FF30
:1022AC002268936843F0770393603CE0CB684A68FC
:1022BC0089680068FFF7A8FF2268936843F480439D
:1022CC00936030E0CA6849680068FFF76FFF5021DF
:1022DC002068FFF791FF26E0CA6849680068FFF79D
:1022EC0077FF60212068FFF787FF1CE0CA68496808
:1022FC000068FFF75BFF40212068FFF77DFF12E0CD
:10230C0000210068FFF778FF0DE010210068FFF74F
:10231C0073FF08E020210068FFF76EFF03E0302117
:10232C000068FFF769FF012384F83930002084F836
:10233C00380010BD022070470368184A90420AD03A
:10234C00B0F1804F07D0A2F59432904203D002F541
:10235C008062904203D123F070034A6813430F4A02
:10236C0090420AD0B0F1804F07D0A2F5943290423F
:10237C0003D002F58062904203D123F44073CA6803
:10238C00134303608B68C3620B688362034B9842F0
:10239C0001D10B690363012343617047002C014099
:1023AC00B8B110B5044690F8393013F0FF0F04D1D2
:1023BC00002380F8383002F0C3FA022384F8393055
:1023CC00211D2068FFF7B8FF012384F83930002065
:1023DC0010BD0120704700BFB8B110B5044690F88D
:1023EC00393013F0FF0F04D1002380F83830FFF799
:1023FC0017FF022384F83930211D2068FFF79CFF5A
:10240C00012384F83930002010BD0120704700BF33
:10241C0030B4036A23F010030362036A44688269D0
:10242C0022F4E6420D6842EA052223F020038D686F
:10243C0043EA05130D4DA84206D123F08003CD6865
:10244C0043EA051323F04003084DA84207D124F4B6
:10245C0040644D6944EA85048D6944EA850444600E
:10246C0082614A688263036230BC7047002C014071
:10247C0038B590F83830012B66D00D460446012350
:10248C0080F83830022380F839300C2A55D8DFE830
:10249C0002F0075454541A5454542E5454544100BA
:1024AC000068FFF703FE2268936943F00803936109
:1024BC002268936923F004039361226891692B6964
:1024CC000B43936139E00068FFF7A2FF2268936920
:1024DC0043F4006393612268936923F480639361EE
:1024EC0022689369296943EA0123936125E0006816
:1024FC00FFF708FE2268D36943F00803D361226812
:10250C00D36923F00403D3612268D1692B690B438F
:10251C00D36112E00068FFF725FE2268D36943F40B
:10252C000063D3612268D36923F48063D36122688A
:10253C00D369296943EA0123D361012384F8393033
:10254C00002084F8380038BD022038BD90F83830AF
:10255C00012B21D030B4012280F83820022380F8DE
:10256C0039300468636823F070036360046865683D
:10257C000B682B4363600468A36823F08003A3609B
:10258C000468A5684B682B43A36080F839200023AE
:10259C0080F83830184601E00220704730BC704794
:1025AC0084B001A880E80E00002004B0704700BF82
:1025BC00B0F840309BB243F43D43A0F840300020CB
:1025CC00704700BFB0F8403023F474535B045B0CCD
:1025DC00A0F84030002070470020704784B010B441
:1025EC0002AC84E80E000123A0F840300023A0F8D0
:1025FC004030A0F84430A0F85030184610BC04B05D
:10260C00704700BF10B4CB78032B35D8DFE803F04C
:10261C0002280F1B0A7830F822309BB223F4EC43CB
:10262C0023F0700343F4007320F8223024E00A787E
:10263C0030F822309BB223F4EC4323F070039BB2AE
:10264C0020F8223018E00A7830F822309BB223F4BC
:10265C00EC4323F0700343F4C06320F822300BE00A
:10266C000A7830F822309BB223F4EC4323F0700349
:10267C0043F4806320F822300A7830F8223023F0BB
:10268C00F0031B051B0D134343F4004343F080037D
:10269C0020F822308B7A002B40F08B804B7883B360
:1026AC00B0F850309BB20A7803EBC20300EB430343
:1026BC008A8852085200C3F800240A7830F8223075
:1026CC0003F040039BB25BB130F8223023F0F003EF
:1026DC001B051B0D43F4004343F0C00320F82230CC
:1026EC000A7830F822309BB223F4E04323F0400305
:1026FC0083F0200343F4004343F0800320F822309E
:10270C001BE1B0F850309BB20A7803EBC2030433E0
:10271C0000EB43038A8852085200C3F80024B0F837
:10272C0050309BB20A7803EBC203063300EB430331
:10273C000C693E2C0ED9C4F34F1214F01F0F01D1AB
:10274C00013A92B26FEAC2626FEA524292B2C3F895
:10275C0000240AE0C4F34F0214F0010F01D001323F
:10276C0092B2920292B2C3F800240A7830F8223066
:10277C0003F480439BB25BB130F8223023F0F003BA
:10278C001B051B0D43F4404343F0800320F822301B
:10279C000A7830F822309BB223F4804323F0700384
:1027AC0083F4405343F4004343F0800320F8223079
:1027BC00C3E00A7830F8223023F4F8731B051B0DA4
:1027CC0043F4014343F0800320F82230B0F850303A
:1027DC009BB20A7803EBC20300EB4303CA8852088E
:1027EC005200C3F80024B0F850309BB20A7803EBC7
:1027FC00C203043300EB43030A8952085200C3F8A6
:10280C0000244B78002B4DD10A7830F8223003F499
:10281C0080439BB25BB130F8223023F0F0031B05F0
:10282C001B0D43F4404343F0800320F822300A7818
:10283C0030F8223003F040039BB25BB130F8223009
:10284C0023F0F0031B051B0D43F4004343F0C003BE
:10285C0020F822300A7830F8223023F0F0031B05E0
:10286C001B0D43F4004343F0C00320F822300C78D6
:10287C0030F824309BB223F4804323F0700383F4AC
:10288C00405348F28002134320F82430097830F882
:10289C0021309BB223F4E04323F04003134320F890
:1028AC0021304AE00A7830F8223003F480439BB29E
:1028BC005BB130F8223023F0F0031B051B0D43F401
:1028CC00404343F0800320F822300A7830F822305D
:1028DC0003F040039BB25BB130F8223023F0F003DD
:1028EC001B051B0D43F4004343F0C00320F82230BA
:1028FC000A7830F8223023F0F0031B051B0D43F44B
:10290C00404343F0800320F822300C7830F8243018
:10291C009BB223F4E04323F0400348F280021343BC
:10292C0020F82430097830F821309BB223F480430E
:10293C0023F07003134320F82130002010BC7047A3
:10294C008B7A002B46D14B7813B30A7830F82230AF
:10295C0003F040039BB25BB130F8223023F0F0035C
:10296C001B051B0D43F4004343F0C00320F8223039
:10297C000A7830F822309BB223F4E04323F0400372
:10298C0043F4004343F0800320F8223000207047CA
:10299C000A7830F8223003F480439BB25BB130F8F4
:1029AC00223023F0F0031B051B0D43F4404343F08E
:1029BC00800320F822300A7830F822309BB223F4BE
:1029CC00804323F0700343F4004343F0800320F86A
:1029DC002230DBE710B44B78002B4BD10A7830F85F
:1029EC00223003F480439BB25BB130F8223023F0E9
:1029FC00F0031B051B0D43F4404343F0800320F808
:102A0C0022300A7830F8223003F040039BB25BB1DD
:102A1C0030F8223023F0F0031B051B0D43F4004368
:102A2C0043F0C00320F822300A7830F8223023F02B
:102A3C00F0031B051B0D43F4004343F0C00320F8C7
:102A4C0022300C7830F824309BB223F4804323F0EE
:102A5C00700348F28002134320F82430097830F8D0
:102A6C0021309BB223F4E04323F04003134320F8BE
:102A7C0021304AE00A7830F8223003F480439BB2CC
:102A8C005BB130F8223023F0F0031B051B0D43F42F
:102A9C00404343F0800320F822300A7830F822308B
:102AAC0003F040039BB25BB130F8223023F0F0030B
:102ABC001B051B0D43F4004343F0C00320F82230E8
:102ACC000A7830F8223023F0F0031B051B0D43F479
:102ADC00404343F0800320F822300C7830F8243047
:102AEC009BB223F4E04323F0400348F280021343EB
:102AFC0020F82430097830F821309BB223F480433D
:102B0C0023F07003134320F82130002010BC7047D1
:102B1C000A788AB930F822309BB223F4804323F030
:102B2C00400383F4805383F0100343F4004343F0D9
:102B3C00800320F8223020E04B787BB130F8223033
:102B4C009BB223F4E04323F0400383F0100343F4DF
:102B5C00004343F0800320F822300EE030F822309E
:102B6C009BB223F4804323F0700383F4805343F42B
:102B7C00004343F0800320F822300020704700BF50
:102B8C004B781BB30A7830F8223003F040039BB229
:102B9C005BB130F8223023F0F0031B051B0D43F41E
:102BAC00004343F0C00320F822300A7830F822307A
:102BBC009BB223F4E04323F0400383F0300343F44F
:102BCC00004343F0800320F8223022E00A7830F8EA
:102BDC00223003F480439BB25BB130F8223023F0F7
:102BEC00F0031B051B0D43F4404343F0800320F816
:102BFC0022300A7830F822309BB223F4804323F041
:102C0C00700383F4405343F4004343F0800320F8F3
:102C1C0022300020704700BF11B98023A0F84C303F
:102C2C00002070470020704700207047B0F8440027
:102C3C0080B270470020704710B401335B1000EB7A
:102C4C00420202F5806207E00C78487844EA0024DE
:102C5C0022F8044B0231013B002BF5D110BC70471C
:102C6C0070B54A78012A40F0C2808E690B699E4289
:102C7C0003D9F61A8E611E4601E000238B610D46C6
:102C8C0004468B7A83B9B3B28A884969FFF7D4FFBB
:102C9C00B4F850309BB22A7803EBC203023304EB36
:102CAC004303C3F8006491E0097830F8213003F055
:102CBC0040039BB29BB322BBB0F850309BB203EBEA
:102CCC00C101063100EB41013E2E0ED9C6F34F1364
:102CDC0016F01F0F01D1013B9BB26FEAC3636FEA81
:102CEC0053439BB2C1F8003417E0C6F34F0316F000
:102CFC00010F01D001339BB29B029BB2C1F800348F
:102D0C000BE0012A09D1B0F850309BB203EBC103A0
:102D1C00023300EB4303C3F800642A8932E022BB80
:102D2C00B0F850309BB203EBC101023100EB410112
:102D3C003E2E0ED9C6F34F1316F01F0F01D1013BD7
:102D4C009BB26FEAC3636FEA53439BB2C1F8003482
:102D5C0017E0C6F34F0316F0010F01D001339BB2FD
:102D6C009B029BB2C1F800340BE0012A09D1B0F8E8
:102D7C0050309BB203EBC103023300EB4303C3F8A7
:102D8C000064EA88B3B269692046FFF755FF6B7897
:102D9C006BB92A7834F8223023F0F0031B051B0D95
:102DAC0043F4004343F0C00324F822300EE0012B1F
:102DBC000CD12A7834F8223023F0F0031B051B0DBC
:102DCC0043F4404343F0800324F822302A7834F84B
:102DDC0022309BB223F4E04323F0400383F0300312
:102DEC0043F4004343F0800324F82230AAE08B69BB
:102DFC000C69A34203D91B1B8B61234601E0002401
:102E0C008C618C7A2CBBB0F8502092B20C7802EB0F
:102E1C00C402063200EB42023E2B0ED9C3F34F1410
:102E2C0013F01F0F01D1013CA4B26FEAC4646FEA26
:102E3C005444A4B2C2F8004474E0C3F34F0413F03A
:102E4C00010F01D00134A4B2A402A4B2C2F8004410
:102E5C0068E02ABBB0F8502092B20C7802EBC402A6
:102E6C00023200EB42023E2B0ED9C3F34F1413F087
:102E7C001F0F01D1013CA4B26FEAC4646FEA544441
:102E8C00A4B2C2F8004418E0C3F34F0413F0010FCE
:102E9C0001D00134A4B2A402A4B2C2F800440CE0E4
:102EAC00012A0AD1B0F8502092B20C7802EBC4027D
:102EBC00023200EB4202C2F800344A782ABBB0F866
:102ECC00502092B20C7802EBC402063200EB4202A4
:102EDC003E2B0ED9C3F34F1413F01F0F01D1013C3D
:102EEC00A4B26FEAC4646FEA5444A4B2C2F80044BA
:102EFC0018E0C3F34F0413F0010F01D00134A4B256
:102F0C00A402A4B2C2F800440CE0012A0AD1B0F821
:102F1C00502092B20C7802EBC402023200EB420257
:102F2C00C2F800340A7830F822309BB223F4804384
:102F3C0023F0700383F4405343F4004343F08003C5
:102F4C0020F82230002070BD01335B1000EB4202F0
:102F5C0002F5806204E0106821F8020B013B043298
:102F6C00002BF8D1704700BFD0F818321BB10020ED
:102F7C00C3F8140270470220704700BF10B5D0F898
:102F8C001842D0F81C325BB194F80002FF2807D02D
:102F9C009B6894F8012221469847FF2384F800325D
:102FAC00002010BD43230380004870470000002020
:102FBC0043230380004870474400002043230380D0
:102FCC0000487047880000200A230380004870479F
:102FDC00CC00002038B50446D0F8185201F096FE0B
:102FEC00C5F80C02D4F818324BB1D4F81C32DB689B
:102FFC0005F50371D5F804029847002038BD02206E
:10300C0038BD00BF70B505460C46D0F818620B7879
:10301C0013F0600224D0202A29D1CA88CAB113F037
:10302C00800F0BD0D0F81C329B68314660789847E3
:10303C00E2883146284600F06FFC18E04B7886F8A1
:10304C000032CB8886F80132CA88314600F07AFC0F
:10305C000DE0D0F81C329B6800224878984706E0B7
:10306C004B780A2B03D10122024900F055FC0020B9
:10307C0070BD00BF7C01002010B50446812101F019
:10308C00D1FD0121204601F0CDFD8221204601F029
:10309C00C9FDD4F8183253B1D4F81C325B68984788
:1030AC00D4F8180201F03CFE0023C4F818320020BA
:1030BC0010BD00BF38B50446037C6BB94FF40073E8
:1030CC000222812101F09CFD4FF4007302220121A8
:1030DC00204601F095FD0AE040230222812101F0F7
:1030EC008FFD402302220121204601F089FD082397
:1030FC0003228221204601F083FD4FF4077001F07A
:10310C000BFE0546C4F81802E8B1D4F81C321B6853
:10311C0098470023C5F81432C5F81832237C4BB9F4
:10312C004FF40073D5F804220121204601F0DEFD96
:10313C00002038BD4023D5F804220121204601F09F
:10314C00D5FD002038BD012038BD00BF19B1C0F835
:10315C001C12002070470220704700BFD0F81832B4
:10316C00C3F80812C3F8102200207047D0F81832A8
:10317C00C3F8041200207047D0F818229AB108B591
:10318C00037C43B94FF40073D2F80422012101F0FF
:10319C00ADFD002008BD4023D2F80422012101F02E
:1031AC00A5FD002008BD0220704700BF98B108B5EE
:1031BC000346D0F8140210B10020C3F8140209B170
:1031CC00C3F810121846012380F8FC31027001F08C
:1031DC00C5FC002008BD0220704700BF19B1C0F823
:1031EC001412002070470220704700BF08B501F090
:1031FC00F7FC002008BD00BF08B5D0F8143223B18D
:10320C001B68984718B1022008BD022008BD002099
:10321C0008BD00BF08B5D0F814325B689847002091
:10322C0008BD00BF38B5044600F50275284600F00D
:10323C000BF90123C4F8F431B4F80E32C4F8F831A8
:10324C0094F8081201F01F03012B08D013B1022BC4
:10325C000AD00EE02946204600F072FA0EE029460C
:10326C00204600F091FA09E02946204600F0A8FA21
:10327C0004E001F08001204601F0E4FC002038BDA0
:10328C0010B5044611BB1346D0F8F421032A28D1FB
:10329C00D0F80C11D0F8102191420AD9891AC0F833
:1032AC000C118A4228BF0A4692B2194600F05AFB0A
:1032BC0017E0D0F814321B6923B190F8FC21032AD3
:1032CC0000D19847204600F055FB0AE00A46D0F89A
:1032DC0014329B692BB190F8FC11032901D11146D2
:1032EC009847002010BD00BF10B50446002943D1FB
:1032FC001346D0F8F421022A36D1C169026A9142F0
:10330C000CD98A1AC26192B2194600F013FB002341
:10331C001A461946204601F0E9FC25E08169B1FB0B
:10332C00F2F302FB131393B98A4210D8D0F8F83198
:10333C0099420CD20022114600F0FCFA0021C4F88C
:10334C00F8110B460A46204601F0D0FC0CE0D4F8EC
:10335C001432DB682BB194F8FC21032A01D12046EE
:10336C009847204600F012FB94F80032012B0ED146
:10337C00002384F800320AE00A46D0F814325B6964
:10338C002BB190F8FC11032901D11146984700206C
:10339C0010BD00BF38B5044640230022114601F091
:1033AC002FFC4025C4F810512B46002280212046CA
:1033BC0001F026FC2562012384F8FC31D4F8183284
:1033CC002BB1D4F814325B68217920469847002041
:1033DC0038BD00BF01740020704700BF90F8FC316D
:1033EC0080F8FD31042380F8FC310020704700BFC9
:1033FC0090F8FD3180F8FC310020704708B590F84A
:10340C00FC31032B04D1D0F81432DB6903B198479B
:10341C00002008BD0346002002E00130C0B2013399
:10342C001A78002AF9D170474B88012B0BD110B5B3
:10343C000446C0F80432D0F814329B6898472046F2
:10344C0000F098FA10BD70470B7803704B784370FE
:10345C008B78CA7803EB022343800B794A7903EB10
:10346C00022383808B79CA7903EB0223C3807047D4
:10347C0010B50446802101F0E5FB0021204601F047
:10348C00E1FB10BD30B583B004460D464A88130AE3
:10349C00013B062B79D8DFE803F0040C2078785C2C
:1034AC006900D0F810321B680DF10601007C9847BA
:1034BC006FE0037C43B9D0F814329B6A0DF106001F
:1034CC0098470223437064E0D0F81432DB6A0DF1A4
:1034DC0006009847022343705BE0D2B2052A34D829
:1034EC00DFE802F0030B131B232BD0F810325B68C0
:1034FC000DF10601007C98474BE0D0F810329B6828
:10350C000DF10601007C984743E0D0F81032DB68DF
:10351C000DF10601007C98473BE0D0F810321B6996
:10352C000DF10601007C984733E0D0F810325B694E
:10353C000DF10601007C98472BE0D0F810329B6906
:10354C000DF10601007C984723E02946FFF790FF18
:10355C002DE0037C33B9D0F814325B6B0DF106000F
:10356C00984716E02946FFF783FF20E0037C43B918
:10357C00D0F814321B6B0DF10600984707234370EB
:10358C0007E02946FFF774FF11E02946FFF770FFAB
:10359C000DE0BDF8063053B1EA8842B19A4228BF1B
:1035AC001A46ADF806200146204600F0B5F903B0E6
:1035BC0030BD00BF38B504468B88E3B9CB88D3B98E
:1035CC008D7805F07F0590F8FC31032B02D1FFF7C5
:1035DC004FFF38BD80F8FE51294601F067FB2046AD
:1035EC0000F0C8F91DB1022384F8FC3138BD012369
:1035FC0084F8FC3138BD2046FFF73AFF38BD00BFD8
:10360C0038B504460D468978264B1970012903D923
:10361C002946FFF72DFF38BD90F8FC31022B02D064
:10362C00032B15D039E081B14160032380F8FC31C4
:10363C00FFF7E2FD022804D129462046FFF718FFC8
:10364C0038BD204600F096F938BD00F093F938BD2E
:10365C0049B9022380F8FC314160FFF7DBFD2046BD
:10366C0000F088F938BD4368994213D0D9B2FFF7FE
:10367C00D1FD0C4B197861602046FFF7BDFD022887
:10368C0004D129462046FFF7F3FE38BD204600F052
:10369C0071F938BD00F06EF938BD2946FFF7E8FE28
:1036AC0038BD00BF7D01002008B5CB88012B02D0AE
:1036BC00FFF7DEFE08BD90F8FC31022B02D0032B85
:1036CC0008D00CE00146002341F8083F012200F02D
:1036DC0023F908BD0122011D00F01EF908BDFFF7FA
:1036EC00C7FE08BD08B590F8FC31023B012B0CD885
:1036FC000123C360D0F804320BB10323C360022250
:10370C0000F10C0100F008F908BDFFF7B1FE08BD8F
:10371C0010B5044690F8FC31023B012B0DD84B88B8
:10372C00012B0CD10023C0F80432D0F814329B6862
:10373C009847204600F01EF910BDFFF799FE10BD0A
:10374C0008B54B78092B1BD8DFE803F011171A14B6
:10375C001A08051A0E0BFFF795FE13E0FFF72AFF68
:10376C0010E0FFF74DFF0DE0FFF79EFF0AE0FFF7BB
:10377C00B9FF07E0FFF758FE04E0FFF7C9FF01E0CF
:10378C00FFF776FE002008BD38B504460D4690F8CC
:10379C00FC31032B0FD10B79012B09D8D0F8143243
:1037AC009B689847EB8843B9204600F0E3F804E0A7
:1037BC00FFF75EFE01E0FFF75BFE002038BD00BFA7
:1037CC0038B505460C468A880B7803F06003202B2D
:1037DC0004D1D0F814329B6898477DE0D1B263785D
:1037EC00012B26D0002B48D0032B75D190F8FC313F
:1037FC00022B02D0032B07D017E000296CD08029B4
:10380C006AD001F01FFA67E0638823B919B18029E7
:10381C0001D001F017FAD5F814329B6821462846DE
:10382C009847284600F0A6F856E02146FFF720FE00
:10383C0052E090F8FC31022B02D0032B07D018E099
:10384C00002949D0802947D001F0FCF944E0638875
:10385C00002B41D111F07F0F07D001F003FAD5F8FE
:10386C0014329B68214628469847284600F082F877
:10387C0032E02146FFF7FCFD2EE090F8FC31022BE4
:10388C0002D0032B06D024E011F07F0F24D001F0DE
:10389C00D9F921E012F0800F06D001F07F04013439
:1038AC0000EB0414043405E001F07F04103400EB49
:1038BC0004140434284601F0E5F910B10123236007
:1038CC0001E00023236002222146284600F024F860
:1038DC0002E02146FFF7CCFD002038BDD0B170B519
:1038EC000D4616460446FFF795FD0130400080B2A8
:1038FC003080287003236B70022307E05A1CD2B26D
:10390C000134E9540233DBB20021A9542178002997
:10391C00F4D170BD704700BF10B513460222C0F839
:10392C00F4218361C3610A46002101F0CFF9002024
:10393C0010BD00BF08B513460A46002101F0C6F9B8
:10394C00002008BD10B513460322C0F8F421C0F8BE
:10395C000831C0F80C310A46002101F0C7F90020EB
:10396C0010BD00BF08B513460A46002101F0BEF990
:10397C00002008BD08B50423C0F8F43100231A4612
:10398C00194601F0A3F9002008BD00BF08B50523B6
:10399C00C0F8F43100231A46194601F0A7F90020AB
:1039AC0008BD00BF842801D0033070470020704749
:1039BC0008B500F013FA002008BD00BFF0B587B0C1
:1039CC000F46446805680669B0F90800FFF7EAFF7E
:1039DC0000230393029305AB019300903B46B2B2D4
:1039EC002946204600F072F9012801D1059800E023
:1039FC00002007B0F0BD00BF08B508B90120FFE7F3
:103A0C0000F016FB002008BD08B5002241680068D4
:103A1C0000F084F808BD00BF08B500F0B7FB012822
:103A2C0001D000F069FC08BD00F1080343604FF0C1
:103A3C00FF328260C360036100230360704700BFE4
:103A4C0000230361704700BF43684B609A688A602B
:103A5C009A6851609960086103680133036070478C
:103A6C0030B40D68B5F1FF3F01D1026907E000F1F8
:103A7C00080200E01A4653681C68A542FAD2536843
:103A8C004B6099608A605160086103680133036080
:103A9C0030BC7047036942688168916082684168F4
:103AAC0051605A68904201D182685A6000220261CA
:103ABC00186801381860704738B510B900F0B4FBBD
:103ACC00FEE70D46044600F0C5FB2168E26B236C53
:103ADC0003FB021060600020A063A160013A02FBAE
:103AEC000313E3604FF0FF336364A36455B9236998
:103AFC0083B104F1100000F00BFB01280AD100F097
:103B0C0087FB07E004F11000FFF78EFF04F124009F
:103B1C00FFF78AFF00F0BCFB012038BDF8B510B9E7
:103B2C0000F082FBFEE70D461746064619B101FB75
:103B3C0000F0013000E00020543000F04BFC044653
:103B4C0068B10DB9206002E000F154030360E66334
:103B5C00256401212046FFF7AFFF84F8507014B99B
:103B6C0000F062FBFEE72046F8BD00BF094B1B6866
:103B7C001B680BB9012300E0002323B14FF0FF3287
:103B8C00044B5A607047034B1A68D268D26852686B
:103B9C005A6070478001002008B5034B1B6B012B4A
:103BAC00FBD900F035FBF8E78001002070B5064624
:103BBC000C4619B9800000F00DFC044654B15C2091
:103BCC0000F008FC054608B1046304E0204600F050
:103BDC0031FC00E0002525B1B200A521286B01F0D5
:103BEC0051F9284670BD00BF70B504461546002338
:103BFC0006E0C85CE21882F83400CA5C12B10133EA
:103C0C000F2BF6D9002384F84330042D00D904255A
:103C1C00E562E56400262665201DFFF711FF04F11F
:103C2C001800FFF70DFF2461C5F10505A56164625D
:103C3C00666584F8586070BD70B5002406E01420E9
:103C4C000F4B00FB0430FFF7EFFE0134042CF6D9C8
:103C5C000C4C04F194063046FFF7E6FE04F1A8057F
:103C6C002846FFF7E1FE04F11C00FFF7DDFE04F12E
:103C7C000800FFF7D9FE2660C4F8BC5070BD00BF29
:103C8C00B00100208001002038B50F4BD3F8C020C4
:103C9C005060D3F8C430984208D20B4BD3F8BC0018
:103CAC00D3F8C0100431FFF7DBFE38BD0446064DD7
:103CBC002868D5F8C0100431FFF7D2FE6B689C421F
:103CCC0000D26C6038BD00BF800100202DE9F04FA0
:103CDC0083B00C9EDDF8348010B900F0A5FAFEE735
:103CEC008B4617469A468146042E02D900F09CFA60
:103CFC00FEE70E991046FFF759FF0446002856D0F0
:103D0C00036B07F18045013D03EB850323F00705A9
:103D1C0000970F9B32465946FFF766FF52464946BD
:103D2C00284600F053FA2060B8F1000F01D0C8F813
:103D3C00004000F08FFA284BD3F8C8200132C3F8AA
:103D4C00C820D3F8C0304BB9234BC3F8C040D3F8CC
:103D5C00C830012B0FD1FFF76FFF0CE01E4BD3F8CF
:103D6C00CC3043B91C4BD3F8C030DB6A9E4202D333
:103D7C00194BC3F8C040184BD3F8D0200132C3F80C
:103D8C00D0206264E26A012505FA02F0D3F8D4105F
:103D9C000143C3F8D410303302EB82029000211D92
:103DAC001844FFF751FE00F073FA2C4601E04FF077
:103DBC00FF34012C0BD1084BD3F8CC303BB1064B64
:103DCC00D3F8C030DB6A9E4201D900F021FA2046BC
:103DDC0003B0BDE8F08F00BF8001002000B585B0B6
:103DEC000023039302930193009340220D490E4844
:103DFC00FFF76CFF01280ED100F016FA0B4B4FF0B9
:103E0C00FF325A600122C3F8CC200022C3F8C42030
:103E1C0000F098FA03E010B900F006FAFEE705B0DE
:103E2C005DF804FB504F0008A53B00088001002002
:103E3C00034AD2F8D8300133C2F8D830704700BFEB
:103E4C00800100202DE9F041414BD3F8D830002BF4
:103E5C006DD13F4BD3F8C4200132C3F8C420D3F842
:103E6C00C4709FB91B681B6813B100F0DDF9FEE745
:103E7C00374B1A68D3F8BC101960C3F8BC20D3F8C0
:103E8C00DC200132C3F8DC20FFF770FE304B5B689E
:103E9C009F4203D200243EE0012400E000242C4B7E
:103EAC001B681B680BB9012300E0002323B14FF002
:103EBC00FF32274B5A602EE0254B1B68DB68DD6810
:103ECC006B689F4202D2224A536024E005F1040839
:103EDC004046FFF7DFFDAB6A1BB105F11800FFF799
:103EEC00D9FDEB6A012202FA03F1194ED6F8D4205F
:103EFC000A43C6F8D42006F1300003EB83039A0082
:103F0C0041461044FFF7A0FDEA6AD6F8C030DB6AE0
:103F1C009A42C1D2C3E70E49D1F8C030DB6A03EB39
:103F2C0083039A000A44136B012B08D808E0084A53
:103F3C00D2F8E0300133C2F8E030002400E0012474
:103F4C00034BD3F8E43003B101242046BDE8F081E3
:103F5C008001002070B5354BD3F8D83013B900F080
:103F6C0063F9FEE700F076F9304BD3F8D820013A2C
:103F7C00C3F8D820D3F8D830002B4FD12B4BD3F823
:103F8C00C8303BBB00244CE0284CA36ADD6805F12B
:103F9C001800FFF77FFD2E1D3046FFF77BFDEB6A07
:103FAC00012202FA03F1D4F8D4200A43C4F8D42035
:103FBC0004F1300003EB83039A0031461044FFF701
:103FCC0043FDEA6AD4F8C030DB6A9A4202D301227C
:103FDC00C4F8E420154BDB69002BD5D1134BD3F877
:103FEC00E0306BB911E0FFF72DFF18B101220F4B38
:103FFC00C3F8E4200D4AD2F8E030013BC2F8E030BF
:10400C000A4BD3F8E030002BEDD1084BD3F8E43059
:10401C00012B05D100F0FCF8012402E0002400E0A3
:10402C00002400F035F9204670BD00BF800100204F
:10403C0010B530B30446154BD3F8D83013B100F09B
:10404C00F3F8FEE7FFF7F4FE104BD3F8C42014444A
:10405C00D3F8C0000430FFF71DFD60B90B4BD3F84B
:10406C00C020D16A012202FA01F1D3F8D42022EA4D
:10407C000102C3F8D4202046FFF706FEFFF76AFFC3
:10408C0000E0002008B900F0C3F810BD800100204A
:10409C001E4BD3F8D83023B101221C4BC3F8E420BB
:1040AC00704710B519490023C1F8E430D1F8D43069
:1040BC00B3FA83F3DBB2C3F11F0303EB830082007B
:1040CC000A44126B12B900F0AFF8FEE70F489900E2
:1040DC00CC18A2000244546B646854633030194409
:1040EC008A0008320244944206D1606803EB8301D3
:1040FC008A0006490A445063044903EB83039A007F
:10410C000A44536BDB68C1F8C03010BD800100203D
:10411C0038B5C368DC6814B900F086F8FEE704F122
:10412C0018052846FFF7B6FC164BD3F8D830B3B9B0
:10413C00251D2846FFF7AEFCE36A012101FA03F0C6
:10414C00104AD2F8D4100143C2F8D410303203EB29
:10415C008303980029461044FFF776FC03E02946B8
:10416C000948FFF771FCE26A064BD3F8C030DB6AF2
:10417C009A4204D90120034BC3F8E40038BD002057
:10418C0038BD00BF800100209C010020064BD3F8F5
:10419C00CC302BB1044BD3F8D8301BB9022070476C
:1041AC0001207047002070478001002006480068FD
:1041BC00006880F3088862B661B6BFF34F8FBFF317
:1041CC006F8F00DF00BF000008ED00E04FF0807340
:1041DC0040F8043C40F8081C034B40F80C3C40F8F9
:1041EC00202C4038704700BF45420008074B196827
:1041FC000868B0E8F00F80F30988BFF36F8F4FF0B9
:10420C00000080F311884EF00D0E70474002002024
:10421C004FF08052034B1A60BFF34F8FBFF36F8F79
:10422C00704700BF04ED00E0EFF311804FF0500138
:10423C0081F311887047002008B5054B1B68B3F15A
:10424C00FF3F02D0FFF7F0FFFEE7FFF7EDFFFEE7C1
:10425C001001002008B5FFF7E7FF094A1368013386
:10426C001360BFF34F8FBFF36F8F012B07D1054B3B
:10427C001B6813F0FF0F02D0FFF7D6FFFEE708BD57
:10428C001001002004ED00E080F31188704700BF9E
:10429C0008B5074B1B6813B9FFF7C6FFFEE7013BD8
:1042AC00034A136013B90020FFF7EEFF08BD00BFEF
:1042BC0010010020EFF30980BFF36F8F0D4B1A68CC
:1042CC0020E9F00F10602DE908404FF0500080F30A
:1042DC001188FFF7DDFE4FF0000080F31188BDE878
:1042EC00084019680868B0E8F00F80F30988BFF33C
:1042FC006F8F70474002002008B5FFF795FFFFF75E
:10430C00A1FD18B14FF08052024B1A600020FFF74C
:10431C00BBFF08BD04ED00E0064B1B68064AA2FB80
:10432C0003239B09013B054A13600722044B1A60C7
:10433C00704700BF14010020D34D621014E000E060
:10434C0010E000E000B583B01E4B1A78D2B2019297
:10435C00FF221A701B78DBB28DF803309DF8033006
:10436C00194A03F0500313700723536009E0164AEF
:10437C005368013B53609DF803305B00DBB28DF852
:10438C0003309DF8033013F0800FF0D10E4A5368C0
:10439C001B0203F4E0635360019BDBB2094A137008
:1043AC000A4B1A6842F470021A601A6842F07042A2
:1043BC001A60FFF7B1FF0022054B1A60FFF7F6FEFB
:1043CC00FFF73AFF00E400E06802002020ED00E077
:1043DC001001002038B5044610F0070F02D020F071
:1043EC0007040834FFF724FD104B1B682BB90F4A48
:1043FC0002F10C0323F0070313600D4BD3F80C37B9
:10440C001C4441F2F772944208D8A34208D2074ADE
:10441C0015681D44064BC3F80C4702E0002500E06C
:10442C000025FFF797FD284638BD00BF700200201D
:10443C006813002018B108B5FFF7F6FEFEE77047C9
:10444C0070B588B0204B9A6942F010029A619A6953
:10445C0002F010020092009A9A6942F020029A61CE
:10446C009A6902F020020192019A9A6942F00402C0
:10447C009A619A6902F004020292029A9A6942F0D5
:10448C0008029A619B6903F008030393039B0F4C8A
:10449C0000224FF440712046FCF7A0F90325049547
:1044AC00002305930126069604A90948FCF7AAF8EF
:1044BC004FF4407304930596079504A92046FCF726
:1044CC00A1F808B070BD00BF00100240000C014004
:1044DC000010014008B500F09BFA01224FF48071E6
:1044EC000348FCF77BF90120FFF786FAFBE700BFD6
:1044FC00000C014008B50120FFF77EFAFBE700BF76
:10450C0008B50120FFF778FAFBE700BF08B54FF4B8
:10451C0000710448FCF768F94FF4FA70FFF76CFA75
:10452C00F5E700BF000C0140FEE700BF00B585B009
:10453C001748184B03604FF4807383600123C360EA
:10454C00002343614FF46022C26143600223036184
:10455C00FBF748FF08B1FFF7E7FF10230193012396
:10456C0002930723039301A90948FBF739FE08B10D
:10457C00FFF7DAFF112301930223029301A90448E8
:10458C00FBF72EFE08B1FFF7CFFF05B05DF804FB7B
:10459C00A81C00200024014000B583B01F48204B0C
:1045AC0003604FF0FF3343604FF480738360FDF77B
:1045BC0009FD08B1FFF7B8FF01211848FDF76EFDA2
:1045CC0043F2F223984225D001228DF804200023D7
:1045DC008DF805308DF8063001A91048FDF708FC60
:1045EC0008B1FFF7A1FF01228DF800208DF8012002
:1045FC008DF8022000238DF8033069460748FDF73B
:10460C0057FC08B1FFF790FF43F2F2220121034857
:10461C00FDF73CFD03B05DF804FB00BFD81C002087
:10462C000028004000B58FB027484FF0804303604E
:10463C000023436083604FF4FA42C2600361FDF7CC
:10464C00AFFE08B1FFF770FF0EA94FF4805341F88D
:10465C00103D1D48FDF7E6FD08B1FFF765FF1A4850
:10466C00FDF7BAFE08B1FFF75FFF0023089309932B
:10467C0008A91548FDF76AFF08B1FFF755FF60233D
:10468C000193002202920392059201A90E48FDF7B4
:10469C00EFFE08B1FFF748FF04220DEB02010A48B8
:1046AC00FDF7E6FE08B1FFF73FFF082201A9064817
:1046BC00FDF7DEFE08B1FFF737FF034800F052F9B3
:1046CC000FB05DF804FB00BFF41C002000B595B0E2
:1046DC0007230A934FF480330B9300220C92012290
:1046EC000E920D920222119212934FF4E013139337
:1046FC000AA8FCF71FFD08B1FFF716FF0F2305935F
:10470C0002210691002307934FF4806208920993CB
:10471C0005A8FDF74FF808B1FFF706FF1323019327
:10472C004FF4807302934FF40043039300230493DC
:10473C0001A8FDF74FF908B1FFF7F6FEFDF72CF9CC
:10474C00084BA3FB00308009FBF736FF0420FBF776
:10475C0049FF00220F214FF0FF30FBF7EFFE15B0A1
:10476C005DF804FBD34D621070B598B0FBF70AFDF1
:10477C00FFF7ACFFFFF764FEFFF7D8FEFFF70CFF67
:10478C00FFF750FF264C13AD26460FCE0FC53368EE
:10479C002B60002113A8FFF711F9224B18600EAD06
:1047AC0004F114060FCE0FC533682B6000210EA840
:1047BC00FFF704F91C4B186009AD04F128060FCE65
:1047CC000FC533682B60002109A8FFF7F7F8174BCA
:1047DC00186004AD04F13C060FCE0FC533682B6096
:1047EC00002104A8FFF7EAF8114B186002AB503413
:1047FC0094E8030083E8030000211846FFF704F94E
:10480C000C4B186094E803008DE803000021684607
:10481C00FFF7FAF8084B1860FFF7CAF8FEE700BF7D
:10482C00E04E0008981C00209C1C0020A41C0020BA
:10483C00A01C0020EC1C0020F01C002000B583B054
:10484C00204B9A6942F001029A619B6903F00103C3
:10485C000193019B0320FBF75FFE002211466FF0D2
:10486C000B00FBF76BFE002211466FF00A00FBF702
:10487C0065FE002211466FF00900FBF75FFE002277
:10488C0011466FF00400FBF759FE002211466FF041
:10489C000300FBF753FE00220F216FF00100FBF722
:1048AC004DFE00220F214FF0FF30FBF747FE064A6A
:1048BC00536823F0E06343F00073536003B05DF87A
:1048CC0004FB00BF00100240000001400268084BCE
:1048DC009A420CD182B003F56C439A6942F400728F
:1048EC009A619B6903F400730193019B02B07047BA
:1048FC000024014002680F4B9A421AD100B583B0D4
:10490C00FCF70AFC0C4BDA6942F00062DA61DB69F5
:10491C0003F000630193019B4FF4004393FAA3F35C
:10492C00B3FA83F30121054A42F8231003B05DF872
:10493C0004FB704700280040001002400004424273
:10494C000368B3F1804F0CD182B003F50433DA69FC
:10495C0042F00102DA61DB6903F001030193019B70
:10496C0002B070470368B3F1804F0ED100B585B02B
:10497C0007230093022301930323039369460348FF
:10498C00FBF740FE05B05DF804FB704700080140E2
:10499C00704700BFFEE700BFFEE700BFFEE700BFA9
:1049AC00FEE700BF704700BF08B5FBF7FDFBFFF744
:1049BC0033F808BD08B50248FCF792FA08BD00BFF1
:1049CC005C1F00200F4B1A6842F001021A605968F4
:1049DC000D4A0A405A601A6822F0847222F480321E
:1049EC001A601A6822F480221A605A6822F4FE02B5
:1049FC005A604FF41F029A604FF00062034B9A60AA
:104A0C00704700BF001002400000FFF800ED00E00E
:104A1C0010B5094C002209492046FEF7C7FB08498E
:104A2C002046FEF7DBFB07492046FEF78FFB2046AE
:104A3C00FEF7DCFB10BD00BF301D00204001002044
:104A4C00D80000201801002000207047002070477B
:104A5C0010B5054C01462046FEF788FB2046FEF7B4
:104A6C008BFB002010BD00BF301D002010B5064C84
:104A7C00002206492046FEF771FB05492046FEF749
:104A8C0075FB002010BD00BF301D0020581F0020FA
:104A9C00541F002002680E4B9A4217D100B583B008
:104AAC0003F5DA33DA6942F40002DA61DB6903F404
:104ABC0000030193019B002205211420FBF73EFD0E
:104ACC001420FBF76DFD03B05DF804FB704700BFCD
:104ADC00005C004008B500F57B71D0F81C04FEF7B3
:104AEC00A1FB08BD08B500EB4113D3F81C22D0F88C
:104AFC001C04FEF7C5FB08BD08B500EB4113DA6BCF
:104B0C00D0F81C04FEF7F0FB08BD00BF08B5D0F8C8
:104B1C001C04FEF773FC08BD10B504460121D0F847
:104B2C001C04FEF757FCD4F81C04FEF733FC10BD34
:104B3C0010B50446D0F81C04FEF750FCA36923B151
:104B4C00024A136943F00603136110BD00ED00E047
:104B5C0008B5D0F81C04FEF74BFC08BD10B5044694
:104B6C001D48C0F81C44C4F820021C4B03600823E9
:104B7C004360022383600023C3608361C3610362CB
:104B8C00FBF736FE08B1FFF7CFFC182300221146C5
:104B9C00D4F82002FCF7A4FA582300228021D4F880
:104BAC002002FCF79DFAC02300228121D4F82002B8
:104BBC00FCF796FA4FF4887300220121D4F82002F6
:104BCC00FCF78EFA4FF4807300228221D4F8200275
:104BDC00FCF786FA002010BD5C1F0020005C004032
:104BEC0008B5D0F82002FBF771FE10B1022802D0F4
:104BFC0003E0002008BD012008BD022008BD00BF55
:104C0C0010B51C4613462246D0F82002FBF78AFE4C
:104C1C0010B1022802D003E0002010BD012010BD0D
:104C2C00022010BD08B5D0F82002FBF7A5FE10B18C
:104C3C00022802D003E0002008BD012008BD02209C
:104C4C0008BD00BF08B5D0F82002FCF7F3F910B18D
:104C5C00022802D003E0002008BD012008BD02207C
:104C6C0008BD00BF08B5D0F82002FCF711FA10B14E
:104C7C00022802D003E0002008BD012008BD02205C
:104C8C0008BD00BFD0F8202211F0800F06D001F033
:104C9C007F0302EB431191F82A00704701F07F016A
:104CAC0002EB411191F80A02704700BF08B5D0F829
:104CBC002002FBF723FE10B1022802D003E00020F3
:104CCC0008BD012008BD022008BD00BF08B5D0F802
:104CDC002002FBF7ADFE10B1022802D003E0002049
:104CEC0008BD012008BD022008BD00BF08B5D0F8E2
:104CFC002002FBF769FE10B1022802D003E000206D
:104D0C0008BD012008BD022008BD00BF08B5D0F8C1
:104D1C002002FBF785FE08BD00487047781A00207A
:104D2C00704700BF704700BF12230B8000487047CC
:104D3C002801002004230B80004870473C01002010
:104D4C0008B50A4620B905490548FEF7C7FD03E03A
:104D5C0002490348FEF7C2FD004808BD7C23002031
:104D6C00904F000810B5044C0A4621460348FEF744
:104D7C00B5FD204610BD00BF7C230020A84F0008C5
:104D8C0008B50A4620B905490548FEF7A7FD03E01A
:104D9C0002490348FEF7A2FD004808BD7C23002011
:104DAC00BC4F000808B50A4620B905490548FEF76E
:104DBC0095FD03E002490348FEF790FD004808BD4D
:104DCC007C230020CC4F000808B50A4620B90549C1
:104DDC000548FEF783FD03E002490348FEF77EFD1C
:104DEC00004808BD7C230020D84F0008002103E0B8
:104DFC000B4B5B58435004310A480B4B42189A42F8
:104E0C00F6D30A4A02E0002342F8043B084B9A42CC
:104E1C00F9D3FFF7D7FD00F00FF8FFF7A5FC7047AB
:104E2C00F04F0008000000205C0100205C01002015
:104E3C007C250020FEE700000E4B70B51E460E4C84
:104E4C000025E41AA410A54204D056F82530984742
:104E5C000135F8E700F01EF8084B094C1E46E41A21
:104E6C00A4100025A54204D056F8253098470135EA
:104E7C00F8E770BDE84F0008E84F0008E84F00085D
:104E8C00EC4F000803460244934202D003F8011B86
:104E9C00FAE77047F8B500BFF8BC08BC9E467047EF
:0C4EAC00F8B500BFF8BC08BC9E4670477B
:104EB80002030405060708090A0B0C0D0E0F101053
:104EC8000102000002030405060708090A0B0C0D7D
:104ED8000E0F101001020000844F0008E144000882
:104EE800000000000000000080000000744F00086F
:104EF8001945000800000000000000004000000004
:104F0800684F00080145000800000000000000008C
:104F180040000000584F00080D4500080000000040
:104F280000000000400000008000000001000000B8
:104F38000000000000000000010203040607080941
:104F4800000000000102030449444C450000000031
:104F58005461736B55736257726974650000000081
:104F68005461736B55736252656164005461736B6D
:104F78004C6564466C617368000000006465666196
:104F8800756C745461736B0053544D3332205669F9
:104F9800727475616C20436F6D506F7274000000FD
:104FA80053544D6963726F656C656374726F6E6993
:104FB80063730000303030303030303030303141C1
:104FC8000000000043444320436F6E666967000099
:104FD80043444320496E746572666163650000004E
:044FE800310100088B
:044FEC000D010008AB
:104FF00009024300020100C032090400000102025C
:10500000010005240010010524010001042402020E
:1050100005240600010705820308001009040100A9
:10502000020A000000070501024000000705810296
:105030004000000009024300020100C032090400E0
:1050400000010202010005240010010524010001F5
:10505000042402020524060001070582030800104B
:1050600009040100020A0000000705010200020015
:10507000070581020002000009074300020104C085
:10508000320904000001020201000524001001059C
:105090002401000104240202052406000107058200
:1050A000030800FF09040100020A000000070501CF
:1050B0000240000007058102400000000A060002CD
:1050C0000000004001000000C130000885300008E9
:1050D0001130000800000000892F0008752F00081B
:1050E000E12F0008000000000000000000000000A8
:1050F000BD2F0008B12F0008C92F0008D52F0008C8
:10510000AAAAAAAA00A24A04794A0008554A000895
:10511000594A00085D4A00081201000202020040DC
:105120008304405700020102030100000403090444
:10513000354D0008414D0008714D00084D4D0008E7
:0C5140008D4D0008B14D0008D54D000851
:0400000508004DF9A9
:00000001FF
